{
  "_format": "hh-sol-artifact-1",
  "contractName": "DaPussNFT",
  "sourceName": "contracts/DaPussNFT.sol",
  "abi": [
    {
      "inputs": [],
      "stateMutability": "payable",
      "type": "constructor"
    },
    {
      "anonymous": false,
      "inputs": [
        {
          "indexed": true,
          "internalType": "address",
          "name": "owner",
          "type": "address"
        },
        {
          "indexed": true,
          "internalType": "address",
          "name": "approved",
          "type": "address"
        },
        {
          "indexed": true,
          "internalType": "uint256",
          "name": "tokenId",
          "type": "uint256"
        }
      ],
      "name": "Approval",
      "type": "event"
    },
    {
      "anonymous": false,
      "inputs": [
        {
          "indexed": true,
          "internalType": "address",
          "name": "owner",
          "type": "address"
        },
        {
          "indexed": true,
          "internalType": "address",
          "name": "operator",
          "type": "address"
        },
        {
          "indexed": false,
          "internalType": "bool",
          "name": "approved",
          "type": "bool"
        }
      ],
      "name": "ApprovalForAll",
      "type": "event"
    },
    {
      "anonymous": false,
      "inputs": [
        {
          "indexed": true,
          "internalType": "address",
          "name": "previousOwner",
          "type": "address"
        },
        {
          "indexed": true,
          "internalType": "address",
          "name": "newOwner",
          "type": "address"
        }
      ],
      "name": "OwnershipTransferred",
      "type": "event"
    },
    {
      "anonymous": false,
      "inputs": [
        {
          "indexed": true,
          "internalType": "address",
          "name": "from",
          "type": "address"
        },
        {
          "indexed": true,
          "internalType": "address",
          "name": "to",
          "type": "address"
        },
        {
          "indexed": true,
          "internalType": "uint256",
          "name": "tokenId",
          "type": "uint256"
        }
      ],
      "name": "Transfer",
      "type": "event"
    },
    {
      "inputs": [
        {
          "internalType": "address",
          "name": "to",
          "type": "address"
        },
        {
          "internalType": "uint256",
          "name": "tokenId",
          "type": "uint256"
        }
      ],
      "name": "approve",
      "outputs": [],
      "stateMutability": "nonpayable",
      "type": "function"
    },
    {
      "inputs": [
        {
          "internalType": "address",
          "name": "owner",
          "type": "address"
        }
      ],
      "name": "balanceOf",
      "outputs": [
        {
          "internalType": "uint256",
          "name": "",
          "type": "uint256"
        }
      ],
      "stateMutability": "view",
      "type": "function"
    },
    {
      "inputs": [
        {
          "internalType": "uint256",
          "name": "tokenId",
          "type": "uint256"
        }
      ],
      "name": "getApproved",
      "outputs": [
        {
          "internalType": "address",
          "name": "",
          "type": "address"
        }
      ],
      "stateMutability": "view",
      "type": "function"
    },
    {
      "inputs": [
        {
          "internalType": "address",
          "name": "owner",
          "type": "address"
        },
        {
          "internalType": "address",
          "name": "operator",
          "type": "address"
        }
      ],
      "name": "isApprovedForAll",
      "outputs": [
        {
          "internalType": "bool",
          "name": "",
          "type": "bool"
        }
      ],
      "stateMutability": "view",
      "type": "function"
    },
    {
      "inputs": [],
      "name": "isMintEnabled",
      "outputs": [
        {
          "internalType": "bool",
          "name": "",
          "type": "bool"
        }
      ],
      "stateMutability": "view",
      "type": "function"
    },
    {
      "inputs": [],
      "name": "maxSupply",
      "outputs": [
        {
          "internalType": "uint256",
          "name": "",
          "type": "uint256"
        }
      ],
      "stateMutability": "view",
      "type": "function"
    },
    {
      "inputs": [
        {
          "internalType": "uint256",
          "name": "quantity_",
          "type": "uint256"
        }
      ],
      "name": "mint",
      "outputs": [],
      "stateMutability": "payable",
      "type": "function"
    },
    {
      "inputs": [],
      "name": "mintPrice",
      "outputs": [
        {
          "internalType": "uint256",
          "name": "",
          "type": "uint256"
        }
      ],
      "stateMutability": "view",
      "type": "function"
    },
    {
      "inputs": [
        {
          "internalType": "address",
          "name": "",
          "type": "address"
        }
      ],
      "name": "mintedWallets",
      "outputs": [
        {
          "internalType": "uint256",
          "name": "",
          "type": "uint256"
        }
      ],
      "stateMutability": "view",
      "type": "function"
    },
    {
      "inputs": [],
      "name": "name",
      "outputs": [
        {
          "internalType": "string",
          "name": "",
          "type": "string"
        }
      ],
      "stateMutability": "view",
      "type": "function"
    },
    {
      "inputs": [],
      "name": "owner",
      "outputs": [
        {
          "internalType": "address",
          "name": "",
          "type": "address"
        }
      ],
      "stateMutability": "view",
      "type": "function"
    },
    {
      "inputs": [
        {
          "internalType": "uint256",
          "name": "tokenId",
          "type": "uint256"
        }
      ],
      "name": "ownerOf",
      "outputs": [
        {
          "internalType": "address",
          "name": "",
          "type": "address"
        }
      ],
      "stateMutability": "view",
      "type": "function"
    },
    {
      "inputs": [],
      "name": "renounceOwnership",
      "outputs": [],
      "stateMutability": "nonpayable",
      "type": "function"
    },
    {
      "inputs": [
        {
          "internalType": "address",
          "name": "from",
          "type": "address"
        },
        {
          "internalType": "address",
          "name": "to",
          "type": "address"
        },
        {
          "internalType": "uint256",
          "name": "tokenId",
          "type": "uint256"
        }
      ],
      "name": "safeTransferFrom",
      "outputs": [],
      "stateMutability": "nonpayable",
      "type": "function"
    },
    {
      "inputs": [
        {
          "internalType": "address",
          "name": "from",
          "type": "address"
        },
        {
          "internalType": "address",
          "name": "to",
          "type": "address"
        },
        {
          "internalType": "uint256",
          "name": "tokenId",
          "type": "uint256"
        },
        {
          "internalType": "bytes",
          "name": "_data",
          "type": "bytes"
        }
      ],
      "name": "safeTransferFrom",
      "outputs": [],
      "stateMutability": "nonpayable",
      "type": "function"
    },
    {
      "inputs": [
        {
          "internalType": "address",
          "name": "operator",
          "type": "address"
        },
        {
          "internalType": "bool",
          "name": "approved",
          "type": "bool"
        }
      ],
      "name": "setApprovalForAll",
      "outputs": [],
      "stateMutability": "nonpayable",
      "type": "function"
    },
    {
      "inputs": [
        {
          "internalType": "string",
          "name": "baseTokenUri_",
          "type": "string"
        }
      ],
      "name": "setBaseTokenUrl",
      "outputs": [],
      "stateMutability": "nonpayable",
      "type": "function"
    },
    {
      "inputs": [
        {
          "internalType": "uint256",
          "name": "maxSupply_",
          "type": "uint256"
        }
      ],
      "name": "setMaxSupply",
      "outputs": [],
      "stateMutability": "nonpayable",
      "type": "function"
    },
    {
      "inputs": [
        {
          "internalType": "bytes4",
          "name": "interfaceId",
          "type": "bytes4"
        }
      ],
      "name": "supportsInterface",
      "outputs": [
        {
          "internalType": "bool",
          "name": "",
          "type": "bool"
        }
      ],
      "stateMutability": "view",
      "type": "function"
    },
    {
      "inputs": [],
      "name": "symbol",
      "outputs": [
        {
          "internalType": "string",
          "name": "",
          "type": "string"
        }
      ],
      "stateMutability": "view",
      "type": "function"
    },
    {
      "inputs": [],
      "name": "toggleIsMintEnabled",
      "outputs": [],
      "stateMutability": "nonpayable",
      "type": "function"
    },
    {
      "inputs": [
        {
          "internalType": "uint256",
          "name": "tokenId_",
          "type": "uint256"
        }
      ],
      "name": "tokenURI",
      "outputs": [
        {
          "internalType": "string",
          "name": "",
          "type": "string"
        }
      ],
      "stateMutability": "view",
      "type": "function"
    },
    {
      "inputs": [],
      "name": "totalSupply",
      "outputs": [
        {
          "internalType": "uint256",
          "name": "",
          "type": "uint256"
        }
      ],
      "stateMutability": "view",
      "type": "function"
    },
    {
      "inputs": [
        {
          "internalType": "address",
          "name": "from",
          "type": "address"
        },
        {
          "internalType": "address",
          "name": "to",
          "type": "address"
        },
        {
          "internalType": "uint256",
          "name": "tokenId",
          "type": "uint256"
        }
      ],
      "name": "transferFrom",
      "outputs": [],
      "stateMutability": "nonpayable",
      "type": "function"
    },
    {
      "inputs": [
        {
          "internalType": "address",
          "name": "newOwner",
          "type": "address"
        }
      ],
      "name": "transferOwnership",
      "outputs": [],
      "stateMutability": "nonpayable",
      "type": "function"
    },
    {
      "inputs": [],
      "name": "withdraw",
      "outputs": [],
      "stateMutability": "nonpayable",
      "type": "function"
    },
    {
      "inputs": [],
      "name": "withdrawWallet",
      "outputs": [
        {
          "internalType": "address payable",
          "name": "",
          "type": "address"
        }
      ],
      "stateMutability": "view",
      "type": "function"
    }
  ],
  "bytecode": "0x60806040526040518060400160405280600681526020017f44615075737300000000000000000000000000000000000000000000000000008152506040518060400160405280600481526020017f5055535300000000000000000000000000000000000000000000000000000000815250816000908051906020019062000088929190620001b8565b508060019080519060200190620000a1929190620001b8565b505050620000c4620000b8620000ea60201b60201c565b620000f260201b60201c565b6103e8600981905550600060088190555067016345785d8a0000600781905550620002cd565b600033905090565b6000600660009054906101000a900473ffffffffffffffffffffffffffffffffffffffff16905081600660006101000a81548173ffffffffffffffffffffffffffffffffffffffff021916908373ffffffffffffffffffffffffffffffffffffffff1602179055508173ffffffffffffffffffffffffffffffffffffffff168173ffffffffffffffffffffffffffffffffffffffff167f8be0079c531659141344cd1fd0a4f28419497f9722a3daafe3b4186f6b6457e060405160405180910390a35050565b828054620001c69062000268565b90600052602060002090601f016020900481019282620001ea576000855562000236565b82601f106200020557805160ff191683800117855562000236565b8280016001018555821562000236579182015b828111156200023557825182559160200191906001019062000218565b5b50905062000245919062000249565b5090565b5b80821115620002645760008160009055506001016200024a565b5090565b600060028204905060018216806200028157607f821691505b602082108114156200029857620002976200029e565b5b50919050565b7f4e487b7100000000000000000000000000000000000000000000000000000000600052602260045260246000fd5b613a8880620002dd6000396000f3fe60806040526004361061019c5760003560e01c8063715018a6116100ec578063ada7c4ed1161008a578063c87b56dd11610064578063c87b56dd1461057f578063d5abeb01146105bc578063e985e9c5146105e7578063f2fde38b146106245761019c565b8063ada7c4ed14610502578063b88d4fde1461053f578063c4073217146105685761019c565b80638da5cb5b116100c65780638da5cb5b1461046757806395d89b4114610492578063a0712d68146104bd578063a22cb465146104d95761019c565b8063715018a6146103fc5780637157de4b1461041357806385d178f41461043c5761019c565b8063346de50a116101595780636352211e116101335780636352211e1461032e5780636817c76c1461036b5780636f8b44b01461039657806370a08231146103bf5761019c565b8063346de50a146102c35780633ccfd60b146102ee57806342842e0e146103055761019c565b806301ffc9a7146101a157806306fdde03146101de578063081812fc14610209578063095ea7b31461024657806318160ddd1461026f57806323b872dd1461029a575b600080fd5b3480156101ad57600080fd5b506101c860048036038101906101c391906125fa565b61064d565b6040516101d59190612c6c565b60405180910390f35b3480156101ea57600080fd5b506101f361072f565b6040516102009190612c87565b60405180910390f35b34801561021557600080fd5b50610230600480360381019061022b9190612691565b6107c1565b60405161023d9190612bea565b60405180910390f35b34801561025257600080fd5b5061026d600480360381019061026891906125be565b610846565b005b34801561027b57600080fd5b5061028461095e565b6040516102919190612fa9565b60405180910390f35b3480156102a657600080fd5b506102c160048036038101906102bc91906124b8565b610964565b005b3480156102cf57600080fd5b506102d86109c4565b6040516102e59190612c6c565b60405180910390f35b3480156102fa57600080fd5b506103036109d7565b005b34801561031157600080fd5b5061032c600480360381019061032791906124b8565b610b24565b005b34801561033a57600080fd5b5061035560048036038101906103509190612691565b610b44565b6040516103629190612bea565b60405180910390f35b34801561037757600080fd5b50610380610bf6565b60405161038d9190612fa9565b60405180910390f35b3480156103a257600080fd5b506103bd60048036038101906103b89190612691565b610bfc565b005b3480156103cb57600080fd5b506103e660048036038101906103e19190612453565b610d4d565b6040516103f39190612fa9565b60405180910390f35b34801561040857600080fd5b50610411610e05565b005b34801561041f57600080fd5b5061043a6004803603810190610435919061264c565b610e8d565b005b34801561044857600080fd5b50610451610f1f565b60405161045e9190612c05565b60405180910390f35b34801561047357600080fd5b5061047c610f45565b6040516104899190612bea565b60405180910390f35b34801561049e57600080fd5b506104a7610f6f565b6040516104b49190612c87565b60405180910390f35b6104d760048036038101906104d29190612691565b611001565b005b3480156104e557600080fd5b5061050060048036038101906104fb9190612582565b611220565b005b34801561050e57600080fd5b5061052960048036038101906105249190612453565b611236565b6040516105369190612fa9565b60405180910390f35b34801561054b57600080fd5b5061056660048036038101906105619190612507565b61124e565b005b34801561057457600080fd5b5061057d6112b0565b005b34801561058b57600080fd5b506105a660048036038101906105a19190612691565b611358565b6040516105b39190612c87565b60405180910390f35b3480156105c857600080fd5b506105d16113d4565b6040516105de9190612fa9565b60405180910390f35b3480156105f357600080fd5b5061060e6004803603810190610609919061247c565b6113da565b60405161061b9190612c6c565b60405180910390f35b34801561063057600080fd5b5061064b60048036038101906106469190612453565b61146e565b005b60007f80ac58cd000000000000000000000000000000000000000000000000000000007bffffffffffffffffffffffffffffffffffffffffffffffffffffffff1916827bffffffffffffffffffffffffffffffffffffffffffffffffffffffff1916148061071857507f5b5e139f000000000000000000000000000000000000000000000000000000007bffffffffffffffffffffffffffffffffffffffffffffffffffffffff1916827bffffffffffffffffffffffffffffffffffffffffffffffffffffffff1916145b80610728575061072782611566565b5b9050919050565b60606000805461073e9061325a565b80601f016020809104026020016040519081016040528092919081815260200182805461076a9061325a565b80156107b75780601f1061078c576101008083540402835291602001916107b7565b820191906000526020600020905b81548152906001019060200180831161079a57829003601f168201915b5050505050905090565b60006107cc826115d0565b61080b576040517f08c379a000000000000000000000000000000000000000000000000000000000815260040161080290612e69565b60405180910390fd5b6004600083815260200190815260200160002060009054906101000a900473ffffffffffffffffffffffffffffffffffffffff169050919050565b600061085182610b44565b90508073ffffffffffffffffffffffffffffffffffffffff168373ffffffffffffffffffffffffffffffffffffffff1614156108c2576040517f08c379a00000000000000000000000000000000000000000000000000000000081526004016108b990612f09565b60405180910390fd5b8073ffffffffffffffffffffffffffffffffffffffff166108e161163c565b73ffffffffffffffffffffffffffffffffffffffff161480610910575061090f8161090a61163c565b6113da565b5b61094f576040517f08c379a000000000000000000000000000000000000000000000000000000000815260040161094690612dc9565b60405180910390fd5b6109598383611644565b505050565b60085481565b61097561096f61163c565b826116fd565b6109b4576040517f08c379a00000000000000000000000000000000000000000000000000000000081526004016109ab90612f49565b60405180910390fd5b6109bf8383836117db565b505050565b600a60009054906101000a900460ff1681565b6109df61163c565b73ffffffffffffffffffffffffffffffffffffffff166109fd610f45565b73ffffffffffffffffffffffffffffffffffffffff1614610a53576040517f08c379a0000000000000000000000000000000000000000000000000000000008152600401610a4a90612e89565b60405180910390fd5b6000600c60009054906101000a900473ffffffffffffffffffffffffffffffffffffffff1673ffffffffffffffffffffffffffffffffffffffff1647604051610a9b90612bd5565b60006040518083038185875af1925050503d8060008114610ad8576040519150601f19603f3d011682016040523d82523d6000602084013e610add565b606091505b5050905080610b21576040517f08c379a0000000000000000000000000000000000000000000000000000000008152600401610b1890612d29565b60405180910390fd5b50565b610b3f8383836040518060200160405280600081525061124e565b505050565b6000806002600084815260200190815260200160002060009054906101000a900473ffffffffffffffffffffffffffffffffffffffff169050600073ffffffffffffffffffffffffffffffffffffffff168173ffffffffffffffffffffffffffffffffffffffff161415610bed576040517f08c379a0000000000000000000000000000000000000000000000000000000008152600401610be490612e29565b60405180910390fd5b80915050919050565b60075481565b610c0461163c565b73ffffffffffffffffffffffffffffffffffffffff16610c22610f45565b73ffffffffffffffffffffffffffffffffffffffff1614610c78576040517f08c379a0000000000000000000000000000000000000000000000000000000008152600401610c6f90612e89565b60405180910390fd5b60008111610cbb576040517f08c379a0000000000000000000000000000000000000000000000000000000008152600401610cb290612ea9565b60405180910390fd5b6127108110610cff576040517f08c379a0000000000000000000000000000000000000000000000000000000008152600401610cf690612de9565b60405180910390fd5b6008548111610d43576040517f08c379a0000000000000000000000000000000000000000000000000000000008152600401610d3a90612ee9565b60405180910390fd5b8060098190555050565b60008073ffffffffffffffffffffffffffffffffffffffff168273ffffffffffffffffffffffffffffffffffffffff161415610dbe576040517f08c379a0000000000000000000000000000000000000000000000000000000008152600401610db590612e09565b60405180910390fd5b600360008373ffffffffffffffffffffffffffffffffffffffff1673ffffffffffffffffffffffffffffffffffffffff168152602001908152602001600020549050919050565b610e0d61163c565b73ffffffffffffffffffffffffffffffffffffffff16610e2b610f45565b73ffffffffffffffffffffffffffffffffffffffff1614610e81576040517f08c379a0000000000000000000000000000000000000000000000000000000008152600401610e7890612e89565b60405180910390fd5b610e8b6000611a42565b565b610e9561163c565b73ffffffffffffffffffffffffffffffffffffffff16610eb3610f45565b73ffffffffffffffffffffffffffffffffffffffff1614610f09576040517f08c379a0000000000000000000000000000000000000000000000000000000008152600401610f0090612e89565b60405180910390fd5b8181600b9190610f1a929190612295565b505050565b600c60009054906101000a900473ffffffffffffffffffffffffffffffffffffffff1681565b6000600660009054906101000a900473ffffffffffffffffffffffffffffffffffffffff16905090565b606060018054610f7e9061325a565b80601f0160208091040260200160405190810160405280929190818152602001828054610faa9061325a565b8015610ff75780601f10610fcc57610100808354040283529160200191610ff7565b820191906000526020600020905b815481529060010190602001808311610fda57829003601f168201915b5050505050905090565b600a60009054906101000a900460ff16611050576040517f08c379a000000000000000000000000000000000000000000000000000000000815260040161104790612ec9565b60405180910390fd5b600a81600d60003373ffffffffffffffffffffffffffffffffffffffff1673ffffffffffffffffffffffffffffffffffffffff1681526020019081526020016000205461109d919061307d565b11156110de576040517f08c379a00000000000000000000000000000000000000000000000000000000081526004016110d590612d49565b60405180910390fd5b806007546110ec9190613104565b341461112d576040517f08c379a000000000000000000000000000000000000000000000000000000000815260040161112490612f29565b60405180910390fd5b6008548160095461113e919061307d565b101561117f576040517f08c379a000000000000000000000000000000000000000000000000000000000815260040161117690612f69565b60405180910390fd5b60005b8181101561121c57600d60003373ffffffffffffffffffffffffffffffffffffffff1673ffffffffffffffffffffffffffffffffffffffff16815260200190815260200160002060008154809291906111da906132bd565b9190505550600860008154809291906111f2906132bd565b9190505550600060085490506112083382611b08565b508080611214906132bd565b915050611182565b5050565b61123261122b61163c565b8383611b26565b5050565b600d6020528060005260406000206000915090505481565b61125f61125961163c565b836116fd565b61129e576040517f08c379a000000000000000000000000000000000000000000000000000000000815260040161129590612f49565b60405180910390fd5b6112aa84848484611c93565b50505050565b6112b861163c565b73ffffffffffffffffffffffffffffffffffffffff166112d6610f45565b73ffffffffffffffffffffffffffffffffffffffff161461132c576040517f08c379a000000000000000000000000000000000000000000000000000000000815260040161132390612e89565b60405180910390fd5b600a60009054906101000a900460ff1615600a60006101000a81548160ff021916908315150217905550565b6060611363826115d0565b6113a2576040517f08c379a000000000000000000000000000000000000000000000000000000000815260040161139990612f89565b60405180910390fd5b600b6113ad83611cef565b6040516020016113be929190612ba6565b6040516020818303038152906040529050919050565b60095481565b6000600560008473ffffffffffffffffffffffffffffffffffffffff1673ffffffffffffffffffffffffffffffffffffffff16815260200190815260200160002060008373ffffffffffffffffffffffffffffffffffffffff1673ffffffffffffffffffffffffffffffffffffffff16815260200190815260200160002060009054906101000a900460ff16905092915050565b61147661163c565b73ffffffffffffffffffffffffffffffffffffffff16611494610f45565b73ffffffffffffffffffffffffffffffffffffffff16146114ea576040517f08c379a00000000000000000000000000000000000000000000000000000000081526004016114e190612e89565b60405180910390fd5b600073ffffffffffffffffffffffffffffffffffffffff168173ffffffffffffffffffffffffffffffffffffffff16141561155a576040517f08c379a000000000000000000000000000000000000000000000000000000000815260040161155190612cc9565b60405180910390fd5b61156381611a42565b50565b60007f01ffc9a7000000000000000000000000000000000000000000000000000000007bffffffffffffffffffffffffffffffffffffffffffffffffffffffff1916827bffffffffffffffffffffffffffffffffffffffffffffffffffffffff1916149050919050565b60008073ffffffffffffffffffffffffffffffffffffffff166002600084815260200190815260200160002060009054906101000a900473ffffffffffffffffffffffffffffffffffffffff1673ffffffffffffffffffffffffffffffffffffffff1614159050919050565b600033905090565b816004600083815260200190815260200160002060006101000a81548173ffffffffffffffffffffffffffffffffffffffff021916908373ffffffffffffffffffffffffffffffffffffffff160217905550808273ffffffffffffffffffffffffffffffffffffffff166116b783610b44565b73ffffffffffffffffffffffffffffffffffffffff167f8c5be1e5ebec7d5bd14f71427d1e84f3dd0314c0f7b2291e5b200ac8c7c3b92560405160405180910390a45050565b6000611708826115d0565b611747576040517f08c379a000000000000000000000000000000000000000000000000000000000815260040161173e90612da9565b60405180910390fd5b600061175283610b44565b90508073ffffffffffffffffffffffffffffffffffffffff168473ffffffffffffffffffffffffffffffffffffffff1614806117c157508373ffffffffffffffffffffffffffffffffffffffff166117a9846107c1565b73ffffffffffffffffffffffffffffffffffffffff16145b806117d257506117d181856113da565b5b91505092915050565b8273ffffffffffffffffffffffffffffffffffffffff166117fb82610b44565b73ffffffffffffffffffffffffffffffffffffffff1614611851576040517f08c379a000000000000000000000000000000000000000000000000000000000815260040161184890612ce9565b60405180910390fd5b600073ffffffffffffffffffffffffffffffffffffffff168273ffffffffffffffffffffffffffffffffffffffff1614156118c1576040517f08c379a00000000000000000000000000000000000000000000000000000000081526004016118b890612d69565b60405180910390fd5b6118cc838383611e9c565b6118d7600082611644565b6001600360008573ffffffffffffffffffffffffffffffffffffffff1673ffffffffffffffffffffffffffffffffffffffff1681526020019081526020016000206000828254611927919061315e565b925050819055506001600360008473ffffffffffffffffffffffffffffffffffffffff1673ffffffffffffffffffffffffffffffffffffffff168152602001908152602001600020600082825461197e919061307d565b92505081905550816002600083815260200190815260200160002060006101000a81548173ffffffffffffffffffffffffffffffffffffffff021916908373ffffffffffffffffffffffffffffffffffffffff160217905550808273ffffffffffffffffffffffffffffffffffffffff168473ffffffffffffffffffffffffffffffffffffffff167fddf252ad1be2c89b69c2b068fc378daa952ba7f163c4a11628f55a4df523b3ef60405160405180910390a4611a3d838383611ea1565b505050565b6000600660009054906101000a900473ffffffffffffffffffffffffffffffffffffffff16905081600660006101000a81548173ffffffffffffffffffffffffffffffffffffffff021916908373ffffffffffffffffffffffffffffffffffffffff1602179055508173ffffffffffffffffffffffffffffffffffffffff168173ffffffffffffffffffffffffffffffffffffffff167f8be0079c531659141344cd1fd0a4f28419497f9722a3daafe3b4186f6b6457e060405160405180910390a35050565b611b22828260405180602001604052806000815250611ea6565b5050565b8173ffffffffffffffffffffffffffffffffffffffff168373ffffffffffffffffffffffffffffffffffffffff161415611b95576040517f08c379a0000000000000000000000000000000000000000000000000000000008152600401611b8c90612d89565b60405180910390fd5b80600560008573ffffffffffffffffffffffffffffffffffffffff1673ffffffffffffffffffffffffffffffffffffffff16815260200190815260200160002060008473ffffffffffffffffffffffffffffffffffffffff1673ffffffffffffffffffffffffffffffffffffffff16815260200190815260200160002060006101000a81548160ff0219169083151502179055508173ffffffffffffffffffffffffffffffffffffffff168373ffffffffffffffffffffffffffffffffffffffff167f17307eab39ab6107e8899845ad3d59bd9653f200f220920489ca2b5937696c3183604051611c869190612c6c565b60405180910390a3505050565b611c9e8484846117db565b611caa84848484611f01565b611ce9576040517f08c379a0000000000000000000000000000000000000000000000000000000008152600401611ce090612ca9565b60405180910390fd5b50505050565b60606000821415611d37576040518060400160405280600181526020017f30000000000000000000000000000000000000000000000000000000000000008152509050611e97565b600082905060005b60008214611d69578080611d52906132bd565b915050600a82611d6291906130d3565b9150611d3f565b60008167ffffffffffffffff811115611dab577f4e487b7100000000000000000000000000000000000000000000000000000000600052604160045260246000fd5b6040519080825280601f01601f191660200182016040528015611ddd5781602001600182028036833780820191505090505b5090505b60008514611e9057600182611df6919061315e565b9150600a85611e059190613306565b6030611e11919061307d565b60f81b818381518110611e4d577f4e487b7100000000000000000000000000000000000000000000000000000000600052603260045260246000fd5b60200101907effffffffffffffffffffffffffffffffffffffffffffffffffffffffffffff1916908160001a905350600a85611e8991906130d3565b9450611de1565b8093505050505b919050565b505050565b505050565b611eb08383612098565b611ebd6000848484611f01565b611efc576040517f08c379a0000000000000000000000000000000000000000000000000000000008152600401611ef390612ca9565b60405180910390fd5b505050565b6000611f228473ffffffffffffffffffffffffffffffffffffffff16612272565b1561208b578373ffffffffffffffffffffffffffffffffffffffff1663150b7a02611f4b61163c565b8786866040518563ffffffff1660e01b8152600401611f6d9493929190612c20565b602060405180830381600087803b158015611f8757600080fd5b505af1925050508015611fb857506040513d601f19601f82011682018060405250810190611fb59190612623565b60015b61203b573d8060008114611fe8576040519150601f19603f3d011682016040523d82523d6000602084013e611fed565b606091505b50600081511415612033576040517f08c379a000000000000000000000000000000000000000000000000000000000815260040161202a90612ca9565b60405180910390fd5b805181602001fd5b63150b7a0260e01b7bffffffffffffffffffffffffffffffffffffffffffffffffffffffff1916817bffffffffffffffffffffffffffffffffffffffffffffffffffffffff191614915050612090565b600190505b949350505050565b600073ffffffffffffffffffffffffffffffffffffffff168273ffffffffffffffffffffffffffffffffffffffff161415612108576040517f08c379a00000000000000000000000000000000000000000000000000000000081526004016120ff90612e49565b60405180910390fd5b612111816115d0565b15612151576040517f08c379a000000000000000000000000000000000000000000000000000000000815260040161214890612d09565b60405180910390fd5b61215d60008383611e9c565b6001600360008473ffffffffffffffffffffffffffffffffffffffff1673ffffffffffffffffffffffffffffffffffffffff16815260200190815260200160002060008282546121ad919061307d565b92505081905550816002600083815260200190815260200160002060006101000a81548173ffffffffffffffffffffffffffffffffffffffff021916908373ffffffffffffffffffffffffffffffffffffffff160217905550808273ffffffffffffffffffffffffffffffffffffffff16600073ffffffffffffffffffffffffffffffffffffffff167fddf252ad1be2c89b69c2b068fc378daa952ba7f163c4a11628f55a4df523b3ef60405160405180910390a461226e60008383611ea1565b5050565b6000808273ffffffffffffffffffffffffffffffffffffffff163b119050919050565b8280546122a19061325a565b90600052602060002090601f0160209004810192826122c3576000855561230a565b82601f106122dc57803560ff191683800117855561230a565b8280016001018555821561230a579182015b828111156123095782358255916020019190600101906122ee565b5b509050612317919061231b565b5090565b5b8082111561233457600081600090555060010161231c565b5090565b600061234b61234684612fe9565b612fc4565b90508281526020810184848401111561236357600080fd5b61236e848285613218565b509392505050565b600081359050612385816139f6565b92915050565b60008135905061239a81613a0d565b92915050565b6000813590506123af81613a24565b92915050565b6000815190506123c481613a24565b92915050565b600082601f8301126123db57600080fd5b81356123eb848260208601612338565b91505092915050565b60008083601f84011261240657600080fd5b8235905067ffffffffffffffff81111561241f57600080fd5b60208301915083600182028301111561243757600080fd5b9250929050565b60008135905061244d81613a3b565b92915050565b60006020828403121561246557600080fd5b600061247384828501612376565b91505092915050565b6000806040838503121561248f57600080fd5b600061249d85828601612376565b92505060206124ae85828601612376565b9150509250929050565b6000806000606084860312156124cd57600080fd5b60006124db86828701612376565b93505060206124ec86828701612376565b92505060406124fd8682870161243e565b9150509250925092565b6000806000806080858703121561251d57600080fd5b600061252b87828801612376565b945050602061253c87828801612376565b935050604061254d8782880161243e565b925050606085013567ffffffffffffffff81111561256a57600080fd5b612576878288016123ca565b91505092959194509250565b6000806040838503121561259557600080fd5b60006125a385828601612376565b92505060206125b48582860161238b565b9150509250929050565b600080604083850312156125d157600080fd5b60006125df85828601612376565b92505060206125f08582860161243e565b9150509250929050565b60006020828403121561260c57600080fd5b600061261a848285016123a0565b91505092915050565b60006020828403121561263557600080fd5b6000612643848285016123b5565b91505092915050565b6000806020838503121561265f57600080fd5b600083013567ffffffffffffffff81111561267957600080fd5b612685858286016123f4565b92509250509250929050565b6000602082840312156126a357600080fd5b60006126b18482850161243e565b91505092915050565b6126c3816131a4565b82525050565b6126d281613192565b82525050565b6126e1816131b6565b82525050565b60006126f28261302f565b6126fc8185613045565b935061270c818560208601613227565b612715816133f3565b840191505092915050565b600061272b8261303a565b6127358185613061565b9350612745818560208601613227565b61274e816133f3565b840191505092915050565b60006127648261303a565b61276e8185613072565b935061277e818560208601613227565b80840191505092915050565b600081546127978161325a565b6127a18186613072565b945060018216600081146127bc57600181146127cd57612800565b60ff19831686528186019350612800565b6127d68561301a565b60005b838110156127f8578154818901526001820191506020810190506127d9565b838801955050505b50505092915050565b6000612816603283613061565b915061282182613404565b604082019050919050565b6000612839602683613061565b915061284482613453565b604082019050919050565b600061285c602583613061565b9150612867826134a2565b604082019050919050565b600061287f601c83613061565b915061288a826134f1565b602082019050919050565b60006128a2600f83613061565b91506128ad8261351a565b602082019050919050565b60006128c5601c83613061565b91506128d082613543565b602082019050919050565b60006128e8602483613061565b91506128f38261356c565b604082019050919050565b600061290b601983613061565b9150612916826135bb565b602082019050919050565b600061292e602c83613061565b9150612939826135e4565b604082019050919050565b6000612951603883613061565b915061295c82613633565b604082019050919050565b6000612974602483613061565b915061297f82613682565b604082019050919050565b6000612997602a83613061565b91506129a2826136d1565b604082019050919050565b60006129ba602983613061565b91506129c582613720565b604082019050919050565b60006129dd602083613061565b91506129e88261376f565b602082019050919050565b6000612a00602c83613061565b9150612a0b82613798565b604082019050919050565b6000612a23600583613072565b9150612a2e826137e7565b600582019050919050565b6000612a46602083613061565b9150612a5182613810565b602082019050919050565b6000612a69602083613061565b9150612a7482613839565b602082019050919050565b6000612a8c601383613061565b9150612a9782613862565b602082019050919050565b6000612aaf602f83613061565b9150612aba8261388b565b604082019050919050565b6000612ad2602183613061565b9150612add826138da565b604082019050919050565b6000612af5601483613061565b9150612b0082613929565b602082019050919050565b6000612b18600083613056565b9150612b2382613952565b600082019050919050565b6000612b3b603183613061565b9150612b4682613955565b604082019050919050565b6000612b5e600883613061565b9150612b69826139a4565b602082019050919050565b6000612b81601583613061565b9150612b8c826139cd565b602082019050919050565b612ba08161320e565b82525050565b6000612bb2828561278a565b9150612bbe8284612759565b9150612bc982612a16565b91508190509392505050565b6000612be082612b0b565b9150819050919050565b6000602082019050612bff60008301846126c9565b92915050565b6000602082019050612c1a60008301846126ba565b92915050565b6000608082019050612c3560008301876126c9565b612c4260208301866126c9565b612c4f6040830185612b97565b8181036060830152612c6181846126e7565b905095945050505050565b6000602082019050612c8160008301846126d8565b92915050565b60006020820190508181036000830152612ca18184612720565b905092915050565b60006020820190508181036000830152612cc281612809565b9050919050565b60006020820190508181036000830152612ce28161282c565b9050919050565b60006020820190508181036000830152612d028161284f565b9050919050565b60006020820190508181036000830152612d2281612872565b9050919050565b60006020820190508181036000830152612d4281612895565b9050919050565b60006020820190508181036000830152612d62816128b8565b9050919050565b60006020820190508181036000830152612d82816128db565b9050919050565b60006020820190508181036000830152612da2816128fe565b9050919050565b60006020820190508181036000830152612dc281612921565b9050919050565b60006020820190508181036000830152612de281612944565b9050919050565b60006020820190508181036000830152612e0281612967565b9050919050565b60006020820190508181036000830152612e228161298a565b9050919050565b60006020820190508181036000830152612e42816129ad565b9050919050565b60006020820190508181036000830152612e62816129d0565b9050919050565b60006020820190508181036000830152612e82816129f3565b9050919050565b60006020820190508181036000830152612ea281612a39565b9050919050565b60006020820190508181036000830152612ec281612a5c565b9050919050565b60006020820190508181036000830152612ee281612a7f565b9050919050565b60006020820190508181036000830152612f0281612aa2565b9050919050565b60006020820190508181036000830152612f2281612ac5565b9050919050565b60006020820190508181036000830152612f4281612ae8565b9050919050565b60006020820190508181036000830152612f6281612b2e565b9050919050565b60006020820190508181036000830152612f8281612b51565b9050919050565b60006020820190508181036000830152612fa281612b74565b9050919050565b6000602082019050612fbe6000830184612b97565b92915050565b6000612fce612fdf565b9050612fda828261328c565b919050565b6000604051905090565b600067ffffffffffffffff821115613004576130036133c4565b5b61300d826133f3565b9050602081019050919050565b60008190508160005260206000209050919050565b600081519050919050565b600081519050919050565b600082825260208201905092915050565b600081905092915050565b600082825260208201905092915050565b600081905092915050565b60006130888261320e565b91506130938361320e565b9250827fffffffffffffffffffffffffffffffffffffffffffffffffffffffffffffffff038211156130c8576130c7613337565b5b828201905092915050565b60006130de8261320e565b91506130e98361320e565b9250826130f9576130f8613366565b5b828204905092915050565b600061310f8261320e565b915061311a8361320e565b9250817fffffffffffffffffffffffffffffffffffffffffffffffffffffffffffffffff048311821515161561315357613152613337565b5b828202905092915050565b60006131698261320e565b91506131748361320e565b92508282101561318757613186613337565b5b828203905092915050565b600061319d826131ee565b9050919050565b60006131af826131ee565b9050919050565b60008115159050919050565b60007fffffffff0000000000000000000000000000000000000000000000000000000082169050919050565b600073ffffffffffffffffffffffffffffffffffffffff82169050919050565b6000819050919050565b82818337600083830152505050565b60005b8381101561324557808201518184015260208101905061322a565b83811115613254576000848401525b50505050565b6000600282049050600182168061327257607f821691505b6020821081141561328657613285613395565b5b50919050565b613295826133f3565b810181811067ffffffffffffffff821117156132b4576132b36133c4565b5b80604052505050565b60006132c88261320e565b91507fffffffffffffffffffffffffffffffffffffffffffffffffffffffffffffffff8214156132fb576132fa613337565b5b600182019050919050565b60006133118261320e565b915061331c8361320e565b92508261332c5761332b613366565b5b828206905092915050565b7f4e487b7100000000000000000000000000000000000000000000000000000000600052601160045260246000fd5b7f4e487b7100000000000000000000000000000000000000000000000000000000600052601260045260246000fd5b7f4e487b7100000000000000000000000000000000000000000000000000000000600052602260045260246000fd5b7f4e487b7100000000000000000000000000000000000000000000000000000000600052604160045260246000fd5b6000601f19601f8301169050919050565b7f4552433732313a207472616e7366657220746f206e6f6e20455243373231526560008201527f63656976657220696d706c656d656e7465720000000000000000000000000000602082015250565b7f4f776e61626c653a206e6577206f776e657220697320746865207a65726f206160008201527f6464726573730000000000000000000000000000000000000000000000000000602082015250565b7f4552433732313a207472616e736665722066726f6d20696e636f72726563742060008201527f6f776e6572000000000000000000000000000000000000000000000000000000602082015250565b7f4552433732313a20746f6b656e20616c7265616479206d696e74656400000000600082015250565b7f5769746864726177206661696c65640000000000000000000000000000000000600082015250565b7f45786365656473206d6178206d696e7473207065722077616c6c657400000000600082015250565b7f4552433732313a207472616e7366657220746f20746865207a65726f2061646460008201527f7265737300000000000000000000000000000000000000000000000000000000602082015250565b7f4552433732313a20617070726f766520746f2063616c6c657200000000000000600082015250565b7f4552433732313a206f70657261746f7220717565727920666f72206e6f6e657860008201527f697374656e7420746f6b656e0000000000000000000000000000000000000000602082015250565b7f4552433732313a20617070726f76652063616c6c6572206973206e6f74206f7760008201527f6e6572206e6f7220617070726f76656420666f7220616c6c0000000000000000602082015250565b7f4d617820737570706c792063616e6e6f74206265206d6f7265207468616e203160008201527f3030303000000000000000000000000000000000000000000000000000000000602082015250565b7f4552433732313a2062616c616e636520717565727920666f7220746865207a6560008201527f726f206164647265737300000000000000000000000000000000000000000000602082015250565b7f4552433732313a206f776e657220717565727920666f72206e6f6e657869737460008201527f656e7420746f6b656e0000000000000000000000000000000000000000000000602082015250565b7f4552433732313a206d696e7420746f20746865207a65726f2061646472657373600082015250565b7f4552433732313a20617070726f76656420717565727920666f72206e6f6e657860008201527f697374656e7420746f6b656e0000000000000000000000000000000000000000602082015250565b7f2e6a736f6e000000000000000000000000000000000000000000000000000000600082015250565b7f4f776e61626c653a2063616c6c6572206973206e6f7420746865206f776e6572600082015250565b7f4d617820737570706c792063616e6e6f74206265206c657373207468616e2030600082015250565b7f4d696e74696e67206e6f7420656e61626c656400000000000000000000000000600082015250565b7f4d617820737570706c792063616e6e6f74206265206d6f7265207468616e207460008201527f686520746f74616c20737570706c790000000000000000000000000000000000602082015250565b7f4552433732313a20617070726f76616c20746f2063757272656e74206f776e6560008201527f7200000000000000000000000000000000000000000000000000000000000000602082015250565b7f57726f6e6720707269636520737570706c696564000000000000000000000000600082015250565b50565b7f4552433732313a207472616e736665722063616c6c6572206973206e6f74206f60008201527f776e6572206e6f7220617070726f766564000000000000000000000000000000602082015250565b7f536f6c64206f7574000000000000000000000000000000000000000000000000600082015250565b7f546f6b656e20646f6573206e6f74206578697374210000000000000000000000600082015250565b6139ff81613192565b8114613a0a57600080fd5b50565b613a16816131b6565b8114613a2157600080fd5b50565b613a2d816131c2565b8114613a3857600080fd5b50565b613a448161320e565b8114613a4f57600080fd5b5056fea2646970667358221220e7b4285f4538cc9f7a805a161786d7330ba597636346b0672ac47564503e7bfe64736f6c63430008040033",
  "linkReferences": {},
  "deployedLinkReferences": {}
}